{
  "contractName": "High_low_2",
  "abi": [
    {
      "constant": true,
      "inputs": [
        {
          "name": "",
          "type": "uint256"
        }
      ],
      "name": "bet_creator",
      "outputs": [
        {
          "name": "",
          "type": "address"
        }
      ],
      "payable": false,
      "stateMutability": "view",
      "type": "function"
    },
    {
      "constant": true,
      "inputs": [],
      "name": "name",
      "outputs": [
        {
          "name": "",
          "type": "string"
        }
      ],
      "payable": false,
      "stateMutability": "view",
      "type": "function"
    },
    {
      "constant": true,
      "inputs": [
        {
          "name": "",
          "type": "uint256"
        }
      ],
      "name": "bet_status_map",
      "outputs": [
        {
          "name": "is_bet_stopped",
          "type": "bool"
        },
        {
          "name": "is_result_published",
          "type": "bool"
        },
        {
          "name": "final_option",
          "type": "uint256"
        }
      ],
      "payable": false,
      "stateMutability": "view",
      "type": "function"
    },
    {
      "constant": true,
      "inputs": [],
      "name": "decimals",
      "outputs": [
        {
          "name": "",
          "type": "uint8"
        }
      ],
      "payable": false,
      "stateMutability": "view",
      "type": "function"
    },
    {
      "constant": true,
      "inputs": [
        {
          "name": "",
          "type": "address"
        },
        {
          "name": "",
          "type": "uint256"
        }
      ],
      "name": "bet_details_map",
      "outputs": [
        {
          "name": "bet_id",
          "type": "uint256"
        },
        {
          "name": "team_1",
          "type": "string"
        },
        {
          "name": "team_2",
          "type": "string"
        },
        {
          "name": "team_selecetd",
          "type": "bool"
        },
        {
          "name": "start_time",
          "type": "uint256"
        },
        {
          "name": "expiry_time",
          "type": "uint256"
        }
      ],
      "payable": false,
      "stateMutability": "view",
      "type": "function"
    },
    {
      "constant": true,
      "inputs": [
        {
          "name": "",
          "type": "address"
        },
        {
          "name": "",
          "type": "uint256"
        }
      ],
      "name": "better_betted_bets",
      "outputs": [
        {
          "name": "",
          "type": "uint256"
        }
      ],
      "payable": false,
      "stateMutability": "view",
      "type": "function"
    },
    {
      "constant": true,
      "inputs": [
        {
          "name": "",
          "type": "uint256"
        }
      ],
      "name": "low_betters",
      "outputs": [
        {
          "name": "",
          "type": "uint256"
        }
      ],
      "payable": false,
      "stateMutability": "view",
      "type": "function"
    },
    {
      "constant": true,
      "inputs": [],
      "name": "_totalSupply",
      "outputs": [
        {
          "name": "",
          "type": "uint256"
        }
      ],
      "payable": false,
      "stateMutability": "view",
      "type": "function"
    },
    {
      "constant": true,
      "inputs": [
        {
          "name": "",
          "type": "uint256"
        }
      ],
      "name": "high_betters",
      "outputs": [
        {
          "name": "",
          "type": "uint256"
        }
      ],
      "payable": false,
      "stateMutability": "view",
      "type": "function"
    },
    {
      "constant": true,
      "inputs": [
        {
          "name": "",
          "type": "uint256"
        }
      ],
      "name": "bet_tokens_for_low",
      "outputs": [
        {
          "name": "",
          "type": "uint256"
        }
      ],
      "payable": false,
      "stateMutability": "view",
      "type": "function"
    },
    {
      "constant": true,
      "inputs": [
        {
          "name": "",
          "type": "uint256"
        }
      ],
      "name": "broker_addresses",
      "outputs": [
        {
          "name": "",
          "type": "address"
        }
      ],
      "payable": false,
      "stateMutability": "view",
      "type": "function"
    },
    {
      "constant": true,
      "inputs": [
        {
          "name": "",
          "type": "uint256"
        },
        {
          "name": "",
          "type": "uint256"
        }
      ],
      "name": "betters_of_bet_id",
      "outputs": [
        {
          "name": "",
          "type": "address"
        }
      ],
      "payable": false,
      "stateMutability": "view",
      "type": "function"
    },
    {
      "constant": true,
      "inputs": [
        {
          "name": "",
          "type": "uint256"
        }
      ],
      "name": "bet_tokens_for_high",
      "outputs": [
        {
          "name": "",
          "type": "uint256"
        }
      ],
      "payable": false,
      "stateMutability": "view",
      "type": "function"
    },
    {
      "constant": true,
      "inputs": [],
      "name": "symbol",
      "outputs": [
        {
          "name": "",
          "type": "string"
        }
      ],
      "payable": false,
      "stateMutability": "view",
      "type": "function"
    },
    {
      "constant": true,
      "inputs": [
        {
          "name": "",
          "type": "uint256"
        }
      ],
      "name": "index_of_broker_bet",
      "outputs": [
        {
          "name": "",
          "type": "uint256"
        }
      ],
      "payable": false,
      "stateMutability": "view",
      "type": "function"
    },
    {
      "constant": true,
      "inputs": [
        {
          "name": "",
          "type": "address"
        },
        {
          "name": "",
          "type": "uint256"
        }
      ],
      "name": "is_exit",
      "outputs": [
        {
          "name": "",
          "type": "bool"
        }
      ],
      "payable": false,
      "stateMutability": "view",
      "type": "function"
    },
    {
      "constant": true,
      "inputs": [
        {
          "name": "",
          "type": "address"
        }
      ],
      "name": "is_better",
      "outputs": [
        {
          "name": "",
          "type": "bool"
        }
      ],
      "payable": false,
      "stateMutability": "view",
      "type": "function"
    },
    {
      "constant": true,
      "inputs": [
        {
          "name": "",
          "type": "address"
        }
      ],
      "name": "broker_created_bets",
      "outputs": [
        {
          "name": "",
          "type": "uint256"
        }
      ],
      "payable": false,
      "stateMutability": "view",
      "type": "function"
    },
    {
      "constant": true,
      "inputs": [
        {
          "name": "",
          "type": "address"
        },
        {
          "name": "",
          "type": "uint256"
        }
      ],
      "name": "game_id_map_better",
      "outputs": [
        {
          "name": "option",
          "type": "bool"
        },
        {
          "name": "betted_tokens",
          "type": "uint256"
        }
      ],
      "payable": false,
      "stateMutability": "view",
      "type": "function"
    },
    {
      "constant": true,
      "inputs": [
        {
          "name": "",
          "type": "address"
        }
      ],
      "name": "is_broker",
      "outputs": [
        {
          "name": "",
          "type": "bool"
        }
      ],
      "payable": false,
      "stateMutability": "view",
      "type": "function"
    },
    {
      "constant": true,
      "inputs": [],
      "name": "_bet_id",
      "outputs": [
        {
          "name": "",
          "type": "uint256"
        }
      ],
      "payable": false,
      "stateMutability": "view",
      "type": "function"
    },
    {
      "inputs": [],
      "payable": true,
      "stateMutability": "payable",
      "type": "constructor"
    },
    {
      "anonymous": false,
      "inputs": [
        {
          "indexed": false,
          "name": "indexed_from",
          "type": "address"
        },
        {
          "indexed": false,
          "name": "indexed_to",
          "type": "address"
        },
        {
          "indexed": false,
          "name": "_value",
          "type": "uint256"
        }
      ],
      "name": "Transfer",
      "type": "event"
    },
    {
      "anonymous": false,
      "inputs": [
        {
          "indexed": false,
          "name": "indexed_owner",
          "type": "address"
        },
        {
          "indexed": false,
          "name": "indexed_spender",
          "type": "address"
        },
        {
          "indexed": false,
          "name": "_value",
          "type": "uint256"
        }
      ],
      "name": "Approval",
      "type": "event"
    },
    {
      "anonymous": false,
      "inputs": [
        {
          "indexed": false,
          "name": "_sender",
          "type": "address"
        },
        {
          "indexed": false,
          "name": "_receiver",
          "type": "address"
        },
        {
          "indexed": false,
          "name": "_transfer_amount",
          "type": "uint256"
        }
      ],
      "name": "Transfer_amount",
      "type": "event"
    },
    {
      "constant": true,
      "inputs": [],
      "name": "totalSupply",
      "outputs": [
        {
          "name": "",
          "type": "uint256"
        }
      ],
      "payable": false,
      "stateMutability": "view",
      "type": "function"
    },
    {
      "constant": true,
      "inputs": [
        {
          "name": "_owner",
          "type": "address"
        }
      ],
      "name": "balanceOf",
      "outputs": [
        {
          "name": "",
          "type": "uint256"
        }
      ],
      "payable": false,
      "stateMutability": "view",
      "type": "function"
    },
    {
      "constant": false,
      "inputs": [
        {
          "name": "_to",
          "type": "address"
        },
        {
          "name": "_value",
          "type": "uint256"
        }
      ],
      "name": "transfer",
      "outputs": [
        {
          "name": "",
          "type": "bool"
        }
      ],
      "payable": true,
      "stateMutability": "payable",
      "type": "function"
    },
    {
      "constant": false,
      "inputs": [
        {
          "name": "_from",
          "type": "address"
        },
        {
          "name": "_to",
          "type": "address"
        },
        {
          "name": "_value",
          "type": "uint256"
        }
      ],
      "name": "transferFrom",
      "outputs": [
        {
          "name": "",
          "type": "bool"
        }
      ],
      "payable": true,
      "stateMutability": "payable",
      "type": "function"
    },
    {
      "constant": false,
      "inputs": [
        {
          "name": "_spender",
          "type": "address"
        },
        {
          "name": "_value",
          "type": "uint256"
        }
      ],
      "name": "approve",
      "outputs": [
        {
          "name": "",
          "type": "bool"
        }
      ],
      "payable": true,
      "stateMutability": "payable",
      "type": "function"
    },
    {
      "constant": true,
      "inputs": [
        {
          "name": "_owner",
          "type": "address"
        },
        {
          "name": "_spender",
          "type": "address"
        }
      ],
      "name": "allowance",
      "outputs": [
        {
          "name": "",
          "type": "uint256"
        }
      ],
      "payable": false,
      "stateMutability": "view",
      "type": "function"
    },
    {
      "constant": false,
      "inputs": [],
      "name": "buy_token",
      "outputs": [
        {
          "name": "",
          "type": "bool"
        }
      ],
      "payable": true,
      "stateMutability": "payable",
      "type": "function"
    },
    {
      "constant": false,
      "inputs": [
        {
          "name": "tokens_to_exchange_in_wei",
          "type": "uint256"
        }
      ],
      "name": "exchange_token",
      "outputs": [
        {
          "name": "",
          "type": "bool"
        }
      ],
      "payable": true,
      "stateMutability": "payable",
      "type": "function"
    },
    {
      "constant": true,
      "inputs": [],
      "name": "account_token_balance",
      "outputs": [
        {
          "name": "",
          "type": "uint256"
        }
      ],
      "payable": false,
      "stateMutability": "view",
      "type": "function"
    },
    {
      "constant": true,
      "inputs": [],
      "name": "contract_ether_balance",
      "outputs": [
        {
          "name": "",
          "type": "uint256"
        }
      ],
      "payable": false,
      "stateMutability": "view",
      "type": "function"
    },
    {
      "constant": true,
      "inputs": [],
      "name": "contract_token_balance",
      "outputs": [
        {
          "name": "",
          "type": "uint256"
        }
      ],
      "payable": false,
      "stateMutability": "view",
      "type": "function"
    },
    {
      "constant": true,
      "inputs": [],
      "name": "get_better_betted_bets_length",
      "outputs": [
        {
          "name": "",
          "type": "uint256"
        }
      ],
      "payable": false,
      "stateMutability": "view",
      "type": "function"
    },
    {
      "constant": false,
      "inputs": [],
      "name": "add_broker",
      "outputs": [
        {
          "name": "",
          "type": "bool"
        }
      ],
      "payable": true,
      "stateMutability": "payable",
      "type": "function"
    },
    {
      "constant": true,
      "inputs": [],
      "name": "check_broker",
      "outputs": [
        {
          "name": "",
          "type": "bool"
        }
      ],
      "payable": false,
      "stateMutability": "view",
      "type": "function"
    },
    {
      "constant": true,
      "inputs": [],
      "name": "length_of_broker_addresses",
      "outputs": [
        {
          "name": "",
          "type": "uint256"
        }
      ],
      "payable": false,
      "stateMutability": "view",
      "type": "function"
    },
    {
      "constant": true,
      "inputs": [
        {
          "name": "index",
          "type": "uint256"
        }
      ],
      "name": "get_broker_address",
      "outputs": [
        {
          "name": "",
          "type": "address"
        }
      ],
      "payable": false,
      "stateMutability": "view",
      "type": "function"
    },
    {
      "constant": true,
      "inputs": [],
      "name": "check_better",
      "outputs": [
        {
          "name": "",
          "type": "bool"
        }
      ],
      "payable": false,
      "stateMutability": "view",
      "type": "function"
    },
    {
      "constant": false,
      "inputs": [
        {
          "name": "_team_1",
          "type": "string"
        },
        {
          "name": "_team_2",
          "type": "string"
        },
        {
          "name": "_team_selecetd",
          "type": "bool"
        },
        {
          "name": "_start_time",
          "type": "uint256"
        },
        {
          "name": "_expiry_time",
          "type": "uint256"
        }
      ],
      "name": "broker_set_game",
      "outputs": [
        {
          "name": "",
          "type": "bool"
        }
      ],
      "payable": true,
      "stateMutability": "payable",
      "type": "function"
    },
    {
      "constant": false,
      "inputs": [
        {
          "name": "bet_id",
          "type": "uint256"
        },
        {
          "name": "_choice",
          "type": "uint256"
        },
        {
          "name": "_bet_tokens_in_wei",
          "type": "uint256"
        }
      ],
      "name": "betting",
      "outputs": [
        {
          "name": "",
          "type": "bool"
        }
      ],
      "payable": true,
      "stateMutability": "payable",
      "type": "function"
    },
    {
      "constant": false,
      "inputs": [
        {
          "name": "bet_id",
          "type": "uint256"
        }
      ],
      "name": "broker_stop_bet",
      "outputs": [
        {
          "name": "",
          "type": "bool"
        }
      ],
      "payable": true,
      "stateMutability": "payable",
      "type": "function"
    },
    {
      "constant": false,
      "inputs": [
        {
          "name": "bet_id",
          "type": "uint256"
        },
        {
          "name": "_increase_tokens_in_wei",
          "type": "uint256"
        }
      ],
      "name": "better_increase_bet_tokens",
      "outputs": [
        {
          "name": "",
          "type": "bool"
        }
      ],
      "payable": true,
      "stateMutability": "payable",
      "type": "function"
    },
    {
      "constant": false,
      "inputs": [
        {
          "name": "bet_id",
          "type": "uint256"
        }
      ],
      "name": "better_exit_bet",
      "outputs": [
        {
          "name": "",
          "type": "bool"
        }
      ],
      "payable": true,
      "stateMutability": "payable",
      "type": "function"
    },
    {
      "constant": false,
      "inputs": [
        {
          "name": "bet_id",
          "type": "uint256"
        },
        {
          "name": "result_options",
          "type": "uint256"
        }
      ],
      "name": "broker_setting_result_and_distribute_money",
      "outputs": [
        {
          "name": "",
          "type": "bool"
        }
      ],
      "payable": true,
      "stateMutability": "payable",
      "type": "function"
    }
  ],
  "bytecode": "0x60606040526040805190810160405280600381526020017f484c540000000000000000000000000000000000000000000000000000000000815250600090805190602001906200005192919062000129565b506040805190810160405280600e81526020017f48696768204c6f7720546f6b656e000000000000000000000000000000000000815250600190805190602001906200009f92919062000129565b506012600260006101000a81548160ff021916908360ff160217905550600260009054906101000a900460ff1660ff16600a0a6298968002600381905550600354600460003073ffffffffffffffffffffffffffffffffffffffff1673ffffffffffffffffffffffffffffffffffffffff16815260200190815260200160002081905550620001d8565b828054600181600116156101000203166002900490600052602060002090601f016020900481019282601f106200016c57805160ff19168380011785556200019d565b828001600101855582156200019d579182015b828111156200019c5782518255916020019190600101906200017f565b5b509050620001ac9190620001b0565b5090565b620001d591905b80821115620001d1576000816000905550600101620001b7565b5090565b90565b613c0380620001e86000396000f300606060405260043610610219576000357c0100000000000000000000000000000000000000000000000000000000900463ffffffff168062ada0f21461021e57806306fdde0314610281578063095ea7b31461030f57806311761ed21461035e57806316dcd4cc1461038057806318160ddd146103ad578063182d7957146103d65780631ddaa15b1461042357806323b872dd1461045c578063313ce567146104ca5780633442586a146104f9578063388424fc1461052257806339472f69146106a357806339d200e1146106f95780633eaaf86b1461073057806340721d1b1461075957806342950e6414610790578063531ba6a6146107b957806357720d4a146107e257806361d3a8d71461080b57806363b0e93b146108425780637028403e146108a557806370a0823114610911578063760c883c1461095e578063798424361461098b5780637cc75c3d146109bb57806381c77736146109f25780638328bb4f14610a2b57806383d8cfc014610a6d57806395d89b4114610a8f5780639682f17714610b1d57806398e8c09514610b4d5780639ea6ca1a14610b84578063a9059cbb14610bde578063ab13610014610c2d578063afb06dc314610c7e578063bc9b159b14610ccb578063d55964ad14610cf4578063dd62ed3e14610d55578063e098849614610dc1578063e2605e5314610e24578063e98ba0c714610e75578063ed23f5f414610e9e578063faadb0ff14610ece575b600080fd5b341561022957600080fd5b61023f6004808035906020019091905050610f98565b604051808273ffffffffffffffffffffffffffffffffffffffff1673ffffffffffffffffffffffffffffffffffffffff16815260200191505060405180910390f35b341561028c57600080fd5b610294610fcb565b6040518080602001828103825283818151815260200191508051906020019080838360005b838110156102d45780820151818401526020810190506102b9565b50505050905090810190601f1680156103015780820380516001836020036101000a031916815260200191505b509250505060405180910390f35b610344600480803573ffffffffffffffffffffffffffffffffffffffff16906020019091908035906020019091905050611069565b604051808215151515815260200191505060405180910390f35b610366611195565b604051808215151515815260200191505060405180910390f35b341561038b57600080fd5b610393611283565b604051808215151515815260200191505060405180910390f35b34156103b857600080fd5b6103c06112d7565b6040518082815260200191505060405180910390f35b34156103e157600080fd5b6103f760048080359060200190919050506112e1565b604051808415151515815260200183151515158152602001828152602001935050505060405180910390f35b6104426004808035906020019091908035906020019091905050611325565b604051808215151515815260200191505060405180910390f35b6104b0600480803573ffffffffffffffffffffffffffffffffffffffff1690602001909190803573ffffffffffffffffffffffffffffffffffffffff1690602001909190803590602001909190505061161f565b604051808215151515815260200191505060405180910390f35b34156104d557600080fd5b6104dd61184f565b604051808260ff1660ff16815260200191505060405180910390f35b341561050457600080fd5b61050c611862565b6040518082815260200191505060405180910390f35b341561052d57600080fd5b610562600480803573ffffffffffffffffffffffffffffffffffffffff169060200190919080359060200190919050506118ac565b6040518087815260200180602001806020018615151515815260200185815260200184815260200183810383528881815460018160011615610100020316600290048152602001915080546001816001161561010002031660029004801561060b5780601f106105e05761010080835404028352916020019161060b565b820191906000526020600020905b8154815290600101906020018083116105ee57829003601f168201915b505083810382528781815460018160011615610100020316600290048152602001915080546001816001161561010002031660029004801561068e5780601f106106635761010080835404028352916020019161068e565b820191906000526020600020905b81548152906001019060200180831161067157829003601f168201915b50509850505050505050505060405180910390f35b34156106ae57600080fd5b6106e3600480803573ffffffffffffffffffffffffffffffffffffffff16906020019091908035906020019091905050611900565b6040518082815260200191505060405180910390f35b341561070457600080fd5b61071a6004808035906020019091905050611931565b6040518082815260200191505060405180910390f35b341561073b57600080fd5b610743611949565b6040518082815260200191505060405180910390f35b341561076457600080fd5b61077a600480803590602001909190505061194f565b6040518082815260200191505060405180910390f35b341561079b57600080fd5b6107a3611967565b6040518082815260200191505060405180910390f35b34156107c457600080fd5b6107cc611977565b6040518082815260200191505060405180910390f35b34156107ed57600080fd5b6107f5611987565b6040518082815260200191505060405180910390f35b341561081657600080fd5b61082c60048080359060200190919050506119a6565b6040518082815260200191505060405180910390f35b341561084d57600080fd5b61086360048080359060200190919050506119be565b604051808273ffffffffffffffffffffffffffffffffffffffff1673ffffffffffffffffffffffffffffffffffffffff16815260200191505060405180910390f35b34156108b057600080fd5b6108cf60048080359060200190919080359060200190919050506119fd565b604051808273ffffffffffffffffffffffffffffffffffffffff1673ffffffffffffffffffffffffffffffffffffffff16815260200191505060405180910390f35b341561091c57600080fd5b610948600480803573ffffffffffffffffffffffffffffffffffffffff16906020019091905050611a4b565b6040518082815260200191505060405180910390f35b341561096957600080fd5b610971611a94565b604051808215151515815260200191505060405180910390f35b6109a16004808035906020019091905050611ae8565b604051808215151515815260200191505060405180910390f35b34156109c657600080fd5b6109dc6004808035906020019091905050611be2565b6040518082815260200191505060405180910390f35b610a116004808035906020019091908035906020019091905050611bfa565b604051808215151515815260200191505060405180910390f35b610a536004808035906020019091908035906020019091908035906020019091905050612678565b604051808215151515815260200191505060405180910390f35b610a75612c1d565b604051808215151515815260200191505060405180910390f35b3415610a9a57600080fd5b610aa2612c33565b6040518080602001828103825283818151815260200191508051906020019080838360005b83811015610ae2578082015181840152602081019050610ac7565b50505050905090810190601f168015610b0f5780820380516001836020036101000a031916815260200191505b509250505060405180910390f35b610b336004808035906020019091905050612cd1565b604051808215151515815260200191505060405180910390f35b3415610b5857600080fd5b610b6e6004808035906020019091905050612d0b565b6040518082815260200191505060405180910390f35b3415610b8f57600080fd5b610bc4600480803573ffffffffffffffffffffffffffffffffffffffff16906020019091908035906020019091905050612d23565b604051808215151515815260200191505060405180910390f35b610c13600480803573ffffffffffffffffffffffffffffffffffffffff16906020019091908035906020019091905050612d52565b604051808215151515815260200191505060405180910390f35b3415610c3857600080fd5b610c64600480803573ffffffffffffffffffffffffffffffffffffffff16906020019091905050612f81565b604051808215151515815260200191505060405180910390f35b3415610c8957600080fd5b610cb5600480803573ffffffffffffffffffffffffffffffffffffffff16906020019091905050612fa1565b6040518082815260200191505060405180910390f35b3415610cd657600080fd5b610cde612fb9565b6040518082815260200191505060405180910390f35b3415610cff57600080fd5b610d34600480803573ffffffffffffffffffffffffffffffffffffffff16906020019091908035906020019091905050612fc6565b60405180831515151581526020018281526020019250505060405180910390f35b3415610d6057600080fd5b610dab600480803573ffffffffffffffffffffffffffffffffffffffff1690602001909190803573ffffffffffffffffffffffffffffffffffffffff16906020019091905050613004565b6040518082815260200191505060405180910390f35b3415610dcc57600080fd5b610de2600480803590602001909190505061308b565b604051808273ffffffffffffffffffffffffffffffffffffffff1673ffffffffffffffffffffffffffffffffffffffff16815260200191505060405180910390f35b3415610e2f57600080fd5b610e5b600480803573ffffffffffffffffffffffffffffffffffffffff169060200190919050506130cf565b604051808215151515815260200191505060405180910390f35b3415610e8057600080fd5b610e886130ef565b6040518082815260200191505060405180910390f35b610eb460048080359060200190919050506130f5565b604051808215151515815260200191505060405180910390f35b610f7e600480803590602001908201803590602001908080601f0160208091040260200160405190810160405280939291908181526020018383808284378201915050505050509190803590602001908201803590602001908080601f016020809104026020016040519081016040528093929190818152602001838380828437820191505050505050919080351515906020019091908035906020019091908035906020019091905050613536565b604051808215151515815260200191505060405180910390f35b600d6020528060005260406000206000915054906101000a900473ffffffffffffffffffffffffffffffffffffffff1681565b60018054600181600116156101000203166002900480601f0160208091040260200160405190810160405280929190818152602001828054600181600116156101000203166002900480156110615780601f1061103657610100808354040283529160200191611061565b820191906000526020600020905b81548152906001019060200180831161104457829003601f168201915b505050505081565b600081600560003373ffffffffffffffffffffffffffffffffffffffff1673ffffffffffffffffffffffffffffffffffffffff16815260200190815260200160002060008573ffffffffffffffffffffffffffffffffffffffff1673ffffffffffffffffffffffffffffffffffffffff168152602001908152602001600020819055507f8c5be1e5ebec7d5bd14f71427d1e84f3dd0314c0f7b2291e5b200ac8c7c3b925338484604051808473ffffffffffffffffffffffffffffffffffffffff1673ffffffffffffffffffffffffffffffffffffffff1681526020018373ffffffffffffffffffffffffffffffffffffffff1673ffffffffffffffffffffffffffffffffffffffff168152602001828152602001935050505060405180910390a16001905092915050565b600061119f611283565b1515156111ab57600080fd5b60066111b5612fb9565b1015156111c157600080fd5b600780548060010182816111d59190613ada565b9160005260206000209001600033909190916101000a81548173ffffffffffffffffffffffffffffffffffffffff021916908373ffffffffffffffffffffffffffffffffffffffff160217905550506001600860003373ffffffffffffffffffffffffffffffffffffffff1673ffffffffffffffffffffffffffffffffffffffff16815260200190815260200160002060006101000a81548160ff0219169083151502179055506001905090565b6000600860003373ffffffffffffffffffffffffffffffffffffffff1673ffffffffffffffffffffffffffffffffffffffff16815260200190815260200160002060009054906101000a900460ff16905090565b6000600354905090565b60166020528060005260406000206000915090508060000160009054906101000a900460ff16908060000160019054906101000a900460ff16908060010154905083565b600080600e60003373ffffffffffffffffffffffffffffffffffffffff1673ffffffffffffffffffffffffffffffffffffffff16815260200190815260200160002060008581526020019081526020016000206001015411151561138857600080fd5b600015156016600085815260200190815260200160002060000160009054906101000a900460ff1615151415156113be57600080fd5b42600a6000600d600087815260200190815260200160002060009054906101000a900473ffffffffffffffffffffffffffffffffffffffff1673ffffffffffffffffffffffffffffffffffffffff1673ffffffffffffffffffffffffffffffffffffffff1681526020019081526020016000206000600b6000878152602001908152602001600020548152602001908152602001600020600501541015151561146657600080fd5b6103e8820261147433611a4b565b1015151561148157600080fd5b61149033306103e8850261161f565b5081600e60003373ffffffffffffffffffffffffffffffffffffffff1673ffffffffffffffffffffffffffffffffffffffff16815260200190815260200160002060008581526020019081526020016000206001016000828254019250508190555060001515600e60003373ffffffffffffffffffffffffffffffffffffffff1673ffffffffffffffffffffffffffffffffffffffff168152602001908152602001600020600085815260200190815260200160002060000160009054906101000a900460ff161515141561158557816011600085815260200190815260200160002060008282540192505081905550611615565b60011515600e60003373ffffffffffffffffffffffffffffffffffffffff1673ffffffffffffffffffffffffffffffffffffffff168152602001908152602001600020600085815260200190815260200160002060000160009054906101000a900460ff1615151415611614578160126000858152602001908152602001600020600082825401925050819055505b5b6001905092915050565b600081600460008673ffffffffffffffffffffffffffffffffffffffff1673ffffffffffffffffffffffffffffffffffffffff16815260200190815260200160002054101580156116705750600082115b151561167b57600080fd5b6116cd82600460008773ffffffffffffffffffffffffffffffffffffffff1673ffffffffffffffffffffffffffffffffffffffff16815260200190815260200160002054613a9890919063ffffffff16565b600460008673ffffffffffffffffffffffffffffffffffffffff1673ffffffffffffffffffffffffffffffffffffffff1681526020019081526020016000208190555061176282600460008673ffffffffffffffffffffffffffffffffffffffff1673ffffffffffffffffffffffffffffffffffffffff16815260200190815260200160002054613ab990919063ffffffff16565b600460008573ffffffffffffffffffffffffffffffffffffffff1673ffffffffffffffffffffffffffffffffffffffff168152602001908152602001600020819055507fddf252ad1be2c89b69c2b068fc378daa952ba7f163c4a11628f55a4df523b3ef848484604051808473ffffffffffffffffffffffffffffffffffffffff1673ffffffffffffffffffffffffffffffffffffffff1681526020018373ffffffffffffffffffffffffffffffffffffffff1673ffffffffffffffffffffffffffffffffffffffff168152602001828152602001935050505060405180910390a1600190509392505050565b600260009054906101000a900460ff1681565b6000601060003373ffffffffffffffffffffffffffffffffffffffff1673ffffffffffffffffffffffffffffffffffffffff16815260200190815260200160002080549050905090565b600a60205281600052604060002060205280600052604060002060009150915050806000015490806001019080600201908060030160009054906101000a900460ff16908060040154908060050154905086565b60106020528160005260406000208181548110151561191b57fe5b9060005260206000209001600091509150505481565b60136020528060005260406000206000915090505481565b60035481565b60146020528060005260406000206000915090505481565b600061197233611a4b565b905090565b600061198230611a4b565b905090565b60003073ffffffffffffffffffffffffffffffffffffffff1631905090565b60116020528060005260406000206000915090505481565b6007818154811015156119cd57fe5b90600052602060002090016000915054906101000a900473ffffffffffffffffffffffffffffffffffffffff1681565b600f60205281600052604060002081815481101515611a1857fe5b90600052602060002090016000915091509054906101000a900473ffffffffffffffffffffffffffffffffffffffff1681565b6000600460008373ffffffffffffffffffffffffffffffffffffffff1673ffffffffffffffffffffffffffffffffffffffff168152602001908152602001600020549050919050565b6000600960003373ffffffffffffffffffffffffffffffffffffffff1673ffffffffffffffffffffffffffffffffffffffff16815260200190815260200160002060009054906101000a900460ff16905090565b6000611af933306103e8850261161f565b503373ffffffffffffffffffffffffffffffffffffffff166108fc839081150290604051600060405180830381858888f193505050501515611b3a57600080fd5b7fd51af916ec27930d708168315bc82401ecf73ab390083b9558a6fb4bba5cb09c303384604051808473ffffffffffffffffffffffffffffffffffffffff1673ffffffffffffffffffffffffffffffffffffffff1681526020018373ffffffffffffffffffffffffffffffffffffffff1673ffffffffffffffffffffffffffffffffffffffff168152602001828152602001935050505060405180910390a160019050919050565b60126020528060005260406000206000915090505481565b6000803373ffffffffffffffffffffffffffffffffffffffff16600d600086815260200190815260200160002060009054906101000a900473ffffffffffffffffffffffffffffffffffffffff1673ffffffffffffffffffffffffffffffffffffffff16141515611c6a57600080fd5b42600a6000600d600088815260200190815260200160002060009054906101000a900473ffffffffffffffffffffffffffffffffffffffff1673ffffffffffffffffffffffffffffffffffffffff1673ffffffffffffffffffffffffffffffffffffffff1681526020019081526020016000206000600b60008881526020019081526020016000205481526020019081526020016000206005015411151515611d1257600080fd5b600015156016600086815260200190815260200160002060000160019054906101000a900460ff161515141515611d4857600080fd5b600c8311158015611d5a5750600a8310155b1515611d6557600080fd5b60016016600086815260200190815260200160002060000160016101000a81548160ff021916908315150217905550826016600086815260200190815260200160002060010181905550600f6000858152602001908152602001600020805490509050600c831415611f9c575b6000811115611f93576000600e6000600f600088815260200190815260200160002060018503815481101515611e0457fe5b906000526020600020900160009054906101000a900473ffffffffffffffffffffffffffffffffffffffff1673ffffffffffffffffffffffffffffffffffffffff1673ffffffffffffffffffffffffffffffffffffffff1681526020019081526020016000206000868152602001908152602001600020600101541115611f8557611f8330600f600087815260200190815260200160002060018403815481101515611eac57fe5b906000526020600020900160009054906101000a900473ffffffffffffffffffffffffffffffffffffffff166103e8600e6000600f60008b815260200190815260200160002060018803815481101515611f0257fe5b906000526020600020900160009054906101000a900473ffffffffffffffffffffffffffffffffffffffff1673ffffffffffffffffffffffffffffffffffffffff1673ffffffffffffffffffffffffffffffffffffffff1681526020019081526020016000206000898152602001908152602001600020600101540261161f565b505b808060019003915050611dd2565b60019150612671565b600b831415612304575b60008111156122fb576000600e6000600f600088815260200190815260200160002060018503815481101515611fd857fe5b906000526020600020900160009054906101000a900473ffffffffffffffffffffffffffffffffffffffff1673ffffffffffffffffffffffffffffffffffffffff1673ffffffffffffffffffffffffffffffffffffffff168152602001908152602001600020600086815260200190815260200160002060010154118015612112575060011515600e6000600f60008881526020019081526020016000206001850381548110151561208657fe5b906000526020600020900160009054906101000a900473ffffffffffffffffffffffffffffffffffffffff1673ffffffffffffffffffffffffffffffffffffffff1673ffffffffffffffffffffffffffffffffffffffff168152602001908152602001600020600086815260200190815260200160002060000160009054906101000a900460ff161515145b156122ed576122eb30600f60008781526020019081526020016000206001840381548110151561213e57fe5b906000526020600020900160009054906101000a900473ffffffffffffffffffffffffffffffffffffffff1660126000888152602001908152602001600020546011600089815260200190815260200160002054600e6000600f60008c8152602001908152602001600020600189038154811015156121b957fe5b906000526020600020900160009054906101000a900473ffffffffffffffffffffffffffffffffffffffff1673ffffffffffffffffffffffffffffffffffffffff1673ffffffffffffffffffffffffffffffffffffffff16815260200190815260200160002060008a8152602001908152602001600020600101540281151561223e57fe5b04600e6000600f60008b81526020019081526020016000206001880381548110151561226657fe5b906000526020600020900160009054906101000a900473ffffffffffffffffffffffffffffffffffffffff1673ffffffffffffffffffffffffffffffffffffffff1673ffffffffffffffffffffffffffffffffffffffff168152602001908152602001600020600089815260200190815260200160002060010154016103e80261161f565b505b808060019003915050611fa6565b60019150612671565b600a83141561266c575b6000811115612663576000600e6000600f60008881526020019081526020016000206001850381548110151561234057fe5b906000526020600020900160009054906101000a900473ffffffffffffffffffffffffffffffffffffffff1673ffffffffffffffffffffffffffffffffffffffff1673ffffffffffffffffffffffffffffffffffffffff16815260200190815260200160002060008681526020019081526020016000206001015411801561247a575060001515600e6000600f6000888152602001908152602001600020600185038154811015156123ee57fe5b906000526020600020900160009054906101000a900473ffffffffffffffffffffffffffffffffffffffff1673ffffffffffffffffffffffffffffffffffffffff1673ffffffffffffffffffffffffffffffffffffffff168152602001908152602001600020600086815260200190815260200160002060000160009054906101000a900460ff161515145b156126555761265330600f6000878152602001908152602001600020600184038154811015156124a657fe5b906000526020600020900160009054906101000a900473ffffffffffffffffffffffffffffffffffffffff1660116000888152602001908152602001600020546012600089815260200190815260200160002054600e6000600f60008c81526020019081526020016000206001890381548110151561252157fe5b906000526020600020900160009054906101000a900473ffffffffffffffffffffffffffffffffffffffff1673ffffffffffffffffffffffffffffffffffffffff1673ffffffffffffffffffffffffffffffffffffffff16815260200190815260200160002060008a815260200190815260200160002060010154028115156125a657fe5b04600e6000600f60008b8152602001908152602001600020600188038154811015156125ce57fe5b906000526020600020900160009054906101000a900473ffffffffffffffffffffffffffffffffffffffff1673ffffffffffffffffffffffffffffffffffffffff1673ffffffffffffffffffffffffffffffffffffffff168152602001908152602001600020600089815260200190815260200160002060010154016103e80261161f565b505b80806001900391505061230e565b60019150612671565b600191505b5092915050565b6000808211151561268857600080fd5b6103e8820261269633611a4b565b101515156126a357600080fd5b42600a6000600d600088815260200190815260200160002060009054906101000a900473ffffffffffffffffffffffffffffffffffffffff1673ffffffffffffffffffffffffffffffffffffffff1673ffffffffffffffffffffffffffffffffffffffff1681526020019081526020016000206000600b6000888152602001908152602001600020548152602001908152602001600020600501541015151561274b57600080fd5b42600a6000600d600088815260200190815260200160002060009054906101000a900473ffffffffffffffffffffffffffffffffffffffff1673ffffffffffffffffffffffffffffffffffffffff1673ffffffffffffffffffffffffffffffffffffffff1681526020019081526020016000206000600b600088815260200190815260200160002054815260200190815260200160002060040154111515156127f357600080fd5b600015156016600086815260200190815260200160002060000160009054906101000a900460ff16151514151561282957600080fd5b6000600e60003373ffffffffffffffffffffffffffffffffffffffff1673ffffffffffffffffffffffffffffffffffffffff16815260200190815260200160002060008681526020019081526020016000206001015414151561288b57600080fd5b600183148061289a5750600083145b15156128a557600080fd5b6128b433306103e8850261161f565b5081600e60003373ffffffffffffffffffffffffffffffffffffffff1673ffffffffffffffffffffffffffffffffffffffff16815260200190815260200160002060008681526020019081526020016000206001018190555060008314156129cb576000600e60003373ffffffffffffffffffffffffffffffffffffffff1673ffffffffffffffffffffffffffffffffffffffff168152602001908152602001600020600086815260200190815260200160002060000160006101000a81548160ff0219169083151502179055508160116000868152602001908152602001600020600082825401925050819055506013600085815260200190815260200160002060008154809291906001019190505550612a86565b6001831415612a85576001600e60003373ffffffffffffffffffffffffffffffffffffffff1673ffffffffffffffffffffffffffffffffffffffff168152602001908152602001600020600086815260200190815260200160002060000160006101000a81548160ff02191690831515021790555081601260008681526020019081526020016000206000828254019250508190555060146000858152602001908152602001600020600081548092919060010191905055505b5b600f60008581526020019081526020016000208054806001018281612aab9190613ada565b9160005260206000209001600033909190916101000a81548173ffffffffffffffffffffffffffffffffffffffff021916908373ffffffffffffffffffffffffffffffffffffffff16021790555050601060003373ffffffffffffffffffffffffffffffffffffffff1673ffffffffffffffffffffffffffffffffffffffff1681526020019081526020016000208054806001018281612b4b9190613b06565b91600052602060002090016000869091909150555060001515600960003373ffffffffffffffffffffffffffffffffffffffff1673ffffffffffffffffffffffffffffffffffffffff16815260200190815260200160002060009054906101000a900460ff1615151415612c12576001600960003373ffffffffffffffffffffffffffffffffffffffff1673ffffffffffffffffffffffffffffffffffffffff16815260200190815260200160002060006101000a81548160ff0219169083151502179055505b600190509392505050565b6000612c2e30336103e8340261161f565b905090565b60008054600181600116156101000203166002900480601f016020809104026020016040519081016040528092919081815260200182805460018160011615610100020316600290048015612cc95780601f10612c9e57610100808354040283529160200191612cc9565b820191906000526020600020905b815481529060010190602001808311612cac57829003601f168201915b505050505081565b600060016016600084815260200190815260200160002060000160006101000a81548160ff02191690831515021790555060019050919050565b600b6020528060005260406000206000915090505481565b60156020528160005260406000206020528060005260406000206000915091509054906101000a900460ff1681565b600081600460003373ffffffffffffffffffffffffffffffffffffffff1673ffffffffffffffffffffffffffffffffffffffff1681526020019081526020016000205410158015612da35750600082115b1515612dae57600080fd5b612e0082600460003373ffffffffffffffffffffffffffffffffffffffff1673ffffffffffffffffffffffffffffffffffffffff16815260200190815260200160002054613a9890919063ffffffff16565b600460003373ffffffffffffffffffffffffffffffffffffffff1673ffffffffffffffffffffffffffffffffffffffff16815260200190815260200160002081905550612e9582600460008673ffffffffffffffffffffffffffffffffffffffff1673ffffffffffffffffffffffffffffffffffffffff16815260200190815260200160002054613ab990919063ffffffff16565b600460008573ffffffffffffffffffffffffffffffffffffffff1673ffffffffffffffffffffffffffffffffffffffff168152602001908152602001600020819055507fddf252ad1be2c89b69c2b068fc378daa952ba7f163c4a11628f55a4df523b3ef338484604051808473ffffffffffffffffffffffffffffffffffffffff1673ffffffffffffffffffffffffffffffffffffffff1681526020018373ffffffffffffffffffffffffffffffffffffffff1673ffffffffffffffffffffffffffffffffffffffff168152602001828152602001935050505060405180910390a16001905092915050565b60096020528060005260406000206000915054906101000a900460ff1681565b600c6020528060005260406000206000915090505481565b6000600780549050905090565b600e602052816000526040600020602052806000526040600020600091509150508060000160009054906101000a900460ff16908060010154905082565b6000600560008473ffffffffffffffffffffffffffffffffffffffff1673ffffffffffffffffffffffffffffffffffffffff16815260200190815260200160002060008373ffffffffffffffffffffffffffffffffffffffff1673ffffffffffffffffffffffffffffffffffffffff16815260200190815260200160002054905092915050565b600060078281548110151561309c57fe5b906000526020600020900160009054906101000a900473ffffffffffffffffffffffffffffffffffffffff169050919050565b60086020528060005260406000206000915054906101000a900460ff1681565b60065481565b6000806000600e60003373ffffffffffffffffffffffffffffffffffffffff1673ffffffffffffffffffffffffffffffffffffffff16815260200190815260200160002060008581526020019081526020016000206001015411151561315a57600080fd5b600015156016600085815260200190815260200160002060000160009054906101000a900460ff16151514151561319057600080fd5b42600a6000600d600087815260200190815260200160002060009054906101000a900473ffffffffffffffffffffffffffffffffffffffff1673ffffffffffffffffffffffffffffffffffffffff1673ffffffffffffffffffffffffffffffffffffffff1681526020019081526020016000206000600b6000878152602001908152602001600020548152602001908152602001600020600501541015151561323857600080fd5b6001601560003373ffffffffffffffffffffffffffffffffffffffff1673ffffffffffffffffffffffffffffffffffffffff168152602001908152602001600020600085815260200190815260200160002060006101000a81548160ff021916908315150217905550600e60003373ffffffffffffffffffffffffffffffffffffffff1673ffffffffffffffffffffffffffffffffffffffff16815260200190815260200160002060008481526020019081526020016000206001015490506000600e60003373ffffffffffffffffffffffffffffffffffffffff1673ffffffffffffffffffffffffffffffffffffffff16815260200190815260200160002060008581526020019081526020016000206001018190555061336e30336064605f6103e886020281151561336857fe5b0461161f565b506133c030600d600086815260200190815260200160002060009054906101000a900473ffffffffffffffffffffffffffffffffffffffff16606460056103e88602028115156133ba57fe5b0461161f565b5060001515600e60003373ffffffffffffffffffffffffffffffffffffffff1673ffffffffffffffffffffffffffffffffffffffff168152602001908152602001600020600085815260200190815260200160002060000160009054906101000a900460ff16151514156134785780601160008581526020019081526020016000206000828254039250508190555060136000848152602001908152602001600020600081548092919060019003919050555061352c565b60011515600e60003373ffffffffffffffffffffffffffffffffffffffff1673ffffffffffffffffffffffffffffffffffffffff168152602001908152602001600020600085815260200190815260200160002060000160009054906101000a900460ff161515141561352b578060126000858152602001908152602001600020600082825401925050819055506014600084815260200190815260200160002060008154809291906001900391905055505b5b6001915050919050565b6000428211801561354957506078420383115b801561355457508282115b151561355f57600080fd5b60011515600860003373ffffffffffffffffffffffffffffffffffffffff1673ffffffffffffffffffffffffffffffffffffffff16815260200190815260200160002060009054906101000a900460ff1615151415156135be57600080fd5b600660008154809291906001019190505550600c60003373ffffffffffffffffffffffffffffffffffffffff1673ffffffffffffffffffffffffffffffffffffffff16815260200190815260200160002060008154809291906001019190505550600654600a60003373ffffffffffffffffffffffffffffffffffffffff1673ffffffffffffffffffffffffffffffffffffffff1681526020019081526020016000206000600c60003373ffffffffffffffffffffffffffffffffffffffff1673ffffffffffffffffffffffffffffffffffffffff1681526020019081526020016000205481526020019081526020016000206000018190555085600a60003373ffffffffffffffffffffffffffffffffffffffff1673ffffffffffffffffffffffffffffffffffffffff1681526020019081526020016000206000600c60003373ffffffffffffffffffffffffffffffffffffffff1673ffffffffffffffffffffffffffffffffffffffff168152602001908152602001600020548152602001908152602001600020600101908051906020019061375e929190613b32565b5084600a60003373ffffffffffffffffffffffffffffffffffffffff1673ffffffffffffffffffffffffffffffffffffffff1681526020019081526020016000206000600c60003373ffffffffffffffffffffffffffffffffffffffff1673ffffffffffffffffffffffffffffffffffffffff1681526020019081526020016000205481526020019081526020016000206002019080519060200190613805929190613b32565b5083600a60003373ffffffffffffffffffffffffffffffffffffffff1673ffffffffffffffffffffffffffffffffffffffff1681526020019081526020016000206000600c60003373ffffffffffffffffffffffffffffffffffffffff1673ffffffffffffffffffffffffffffffffffffffff16815260200190815260200160002054815260200190815260200160002060030160006101000a81548160ff02191690831515021790555082600a60003373ffffffffffffffffffffffffffffffffffffffff1673ffffffffffffffffffffffffffffffffffffffff1681526020019081526020016000206000600c60003373ffffffffffffffffffffffffffffffffffffffff1673ffffffffffffffffffffffffffffffffffffffff1681526020019081526020016000205481526020019081526020016000206004018190555081600a60003373ffffffffffffffffffffffffffffffffffffffff1673ffffffffffffffffffffffffffffffffffffffff1681526020019081526020016000206000600c60003373ffffffffffffffffffffffffffffffffffffffff1673ffffffffffffffffffffffffffffffffffffffff16815260200190815260200160002054815260200190815260200160002060050181905550600c60003373ffffffffffffffffffffffffffffffffffffffff1673ffffffffffffffffffffffffffffffffffffffff16815260200190815260200160002054600b600060065481526020019081526020016000208190555033600d6000600654815260200190815260200160002060006101000a81548173ffffffffffffffffffffffffffffffffffffffff021916908373ffffffffffffffffffffffffffffffffffffffff1602179055506001905095945050505050565b600080838311151515613aaa57600080fd5b82840390508091505092915050565b6000808284019050838110151515613ad057600080fd5b8091505092915050565b815481835581811511613b0157818360005260206000209182019101613b009190613bb2565b5b505050565b815481835581811511613b2d57818360005260206000209182019101613b2c9190613bb2565b5b505050565b828054600181600116156101000203166002900490600052602060002090601f016020900481019282601f10613b7357805160ff1916838001178555613ba1565b82800160010185558215613ba1579182015b82811115613ba0578251825591602001919060010190613b85565b5b509050613bae9190613bb2565b5090565b613bd491905b80821115613bd0576000816000905550600101613bb8565b5090565b905600a165627a7a72305820f6d5228a152efa92de58ae0cc97c5562b771555cd0652e795efcfdb29485333a0029",
  "source": "pragma solidity ^0.4.0;\nlibrary SafeMath \n{\n    function add(uint a, uint b) internal pure returns (uint) \n    {\n        uint c;\n        c = a + b;\n        require(c >= a);\n        return c;\n    }\n    \n    function sub(uint a, uint b) internal pure returns (uint) \n    {\n        require(b <= a);\n        uint c;\n        c = a - b;\n        return c;\n    }\n    \n    function mul(uint a, uint b) internal pure returns (uint) \n    {\n        uint c;\n        c = a * b;\n        require(a == 0 || c / a == b);\n        return c;\n    }\n    \n    function div(uint a, uint b) internal pure returns (uint) \n    {\n        require(b > 0);\n        uint c;\n        c = a / b;\n        return c;\n    }\n    \n}\n\ncontract High_low_2\n{\n    \n    using SafeMath for uint;\n    string public symbol;\n    string public  name;\n    uint8 public decimals;\n    uint public _totalSupply;\n    mapping(address => uint) balances;\n    mapping(address => mapping(address => uint)) allowed;\n    \n    \n    function High_low_2() public payable\n    {\n        symbol = \"HLT\";\n        name = \"High Low Token\";\n        decimals = 18;\n        _totalSupply = 10000000 * 10**uint(decimals);\n        balances[this]= _totalSupply;\n    }\n\n    event Transfer(address indexed_from, address indexed_to, uint256 _value);\n    \n    event Approval(address indexed_owner, address indexed_spender, uint256 _value);\n    \n    function totalSupply() public constant returns (uint256) \n    {\n        return _totalSupply;\n    }\n\n    function balanceOf(address _owner) public constant returns (uint256) \n    {\n        return balances[_owner];\n    }\n\n    function transfer(address _to, uint256 _value) public payable returns (bool) \n    {\n        require(balances[msg.sender] >= _value &&  _value > 0);\n        balances[msg.sender] = balances[msg.sender].sub(_value);//calling library\n        balances[_to] = balances[_to].add(_value);\n        Transfer(msg.sender, _to, _value);\n        return true;\n    }\n\n    function transferFrom(address _from, address _to, uint256 _value) public payable returns (bool) \n    {\n        require(balances[_from] >= _value && _value > 0);\n        balances[_from] = balances[_from].sub(_value);\n        balances[_to] = balances[_to].add(_value);\n        Transfer(_from, _to, _value);\n        return true;\n    }\n\n    function approve(address _spender, uint256 _value) public payable returns (bool) \n    {\n        allowed[msg.sender][_spender] = _value;\n        Approval(msg.sender, _spender, _value);\n        return true;\n    }\n\n    function allowance(address _owner, address _spender) public constant returns (uint256) \n    {\n        return allowed[_owner][_spender];\n    }\n    \n    \n    //high low functionalities start here\n    \n    event Transfer_amount(address _sender, address _receiver, uint256 _transfer_amount);\n    \n    function buy_token() public payable returns(bool)\n    {\n        return transferFrom(this, msg.sender, msg.value*1000);\n    }\n    \n    function exchange_token(uint256 tokens_to_exchange_in_wei) public payable returns(bool)\n    {\n        transferFrom(msg.sender, this, tokens_to_exchange_in_wei*1000);\n        msg.sender.transfer(tokens_to_exchange_in_wei);\n        Transfer_amount(this, msg.sender, tokens_to_exchange_in_wei);\n        return true;\n    }\n    \n    function account_token_balance() public constant returns(uint256)\n    {\n        return balanceOf(msg.sender);\n    }\n    \n    function contract_ether_balance() public constant returns(uint256)\n    {\n        return address(this).balance;\n    }\n    \n    function contract_token_balance() public constant returns(uint256)\n    {\n        return balanceOf(this);       \n    }\n    \n    uint256 public _bet_id;\n    \n    address[] public broker_addresses;\n\n    mapping(address=>bool) public is_broker;\n    \n    mapping(address=>bool) public is_better;\n    \n    struct bet_details\n    {\n        uint256 bet_id;\n        string team_1;\n        string team_2;\n        bool team_selecetd;\n        uint256 start_time;\n        uint256 expiry_time;\n    }\n    mapping(address=>mapping(uint256=>bet_details)) public bet_details_map; // key 1: broker_address key2:broker_bets(iterate this)\n    \n    mapping(uint256=>uint256) public index_of_broker_bet;//key:bet_id  value: index_of_broker_bet(broker_created_bets)\n    \n    mapping(address=>uint256) public broker_created_bets;// total bet created by that particular broker (5)\n    \n    mapping(uint256=>address) public bet_creator;\n    \n    struct better\n    {\n        bool option;\n        uint256 betted_tokens;\n    }\n    mapping(address=>mapping(uint256=>better)) public game_id_map_better;//key: index  value:betting     \n    \n    mapping(uint256=>address[]) public betters_of_bet_id;\n    \n    mapping(address=>uint256[]) public better_betted_bets;\n    \n    mapping(uint256=>uint256) public bet_tokens_for_low;\n    \n    mapping(uint256=>uint256) public bet_tokens_for_high; \n    \n    mapping(uint256=>uint256) public low_betters;\n    \n    mapping(uint256=>uint256) public high_betters;\n\n    mapping(address=>mapping(uint256=>bool)) public is_exit;\n\n    function get_better_betted_bets_length() public constant returns(uint256)\n    {\n        return better_betted_bets[msg.sender].length;\n    }\n    \n    struct bet_status\n    {\n        bool is_bet_stopped;\n        bool is_result_published; //to check is_result_published\n        uint256 final_option; //10,11,12 \n    }\n    mapping(uint256=>bet_status) public bet_status_map; \n    \n    function add_broker() public payable returns(bool)\n    {\n        require(!check_broker());\n        require(length_of_broker_addresses()<6);\n        broker_addresses.push(msg.sender);\n        is_broker[msg.sender]=true;\n        return true;\n    }\n    \n    function check_broker() public constant returns(bool) // is_broker\n    {\n        return is_broker[msg.sender];\n    }\n    \n    function length_of_broker_addresses() public constant returns(uint256)\n    {\n        return broker_addresses.length;\n    }\n    \n    function get_broker_address(uint256 index) public constant returns(address)\n    {\n        return broker_addresses[index]; //index start from 0\n    }\n    \n    function check_better() public constant returns(bool)\n    {\n        return is_better[msg.sender];    \n    }\n    \n    function broker_set_game(string _team_1, string _team_2, bool _team_selecetd, uint256 _start_time, uint256 _expiry_time) public payable returns(bool) // newbet, new_game_id\n    {\n        require(_expiry_time>now && _start_time>(now-2 minutes) && _expiry_time>_start_time);\n        require(is_broker[msg.sender]==true);\n        _bet_id++;\n        broker_created_bets[msg.sender]++;\n        bet_details_map[msg.sender][broker_created_bets[msg.sender]].bet_id=_bet_id;\n        bet_details_map[msg.sender][broker_created_bets[msg.sender]].team_1=_team_1;\n        bet_details_map[msg.sender][broker_created_bets[msg.sender]].team_2=_team_2;\n        bet_details_map[msg.sender][broker_created_bets[msg.sender]].team_selecetd=_team_selecetd;\n        bet_details_map[msg.sender][broker_created_bets[msg.sender]].start_time=_start_time;\n        bet_details_map[msg.sender][broker_created_bets[msg.sender]].expiry_time=_expiry_time;\n        index_of_broker_bet[_bet_id]=broker_created_bets[msg.sender];\n        bet_creator[_bet_id]=msg.sender;\n        return true;\n    }\n    \n    function betting(uint256 bet_id,uint256 _choice,uint256 _bet_tokens_in_wei) public payable returns(bool) // is_bet_success \n    {\n        require(_bet_tokens_in_wei>0);\n        require(balanceOf(msg.sender)>=_bet_tokens_in_wei*1000);\n        require(bet_details_map[bet_creator[bet_id]][index_of_broker_bet[bet_id]].expiry_time>=now);\n        require(bet_details_map[bet_creator[bet_id]][index_of_broker_bet[bet_id]].start_time<=now);\n        require(bet_status_map[bet_id].is_bet_stopped==false);\n        require(game_id_map_better[msg.sender][bet_id].betted_tokens==0);\n        require(_choice==1||_choice==0);\n        \n        transferFrom(msg.sender, this, _bet_tokens_in_wei*1000);\n        game_id_map_better[msg.sender][bet_id].betted_tokens=_bet_tokens_in_wei;\n        \n        if(_choice==0)\n        {\n            game_id_map_better[msg.sender][bet_id].option=false;\n            bet_tokens_for_low[bet_id]+=_bet_tokens_in_wei;\n            low_betters[bet_id]++;\n        }\n        else if(_choice==1)\n        {\n            game_id_map_better[msg.sender][bet_id].option=true;\n            bet_tokens_for_high[bet_id]+=_bet_tokens_in_wei;\n            high_betters[bet_id]++;\n        }\n        \n        betters_of_bet_id[bet_id].push(msg.sender);\n        \n        better_betted_bets[msg.sender].push(bet_id);\n        if(is_better[msg.sender]==false)\n        is_better[msg.sender]=true;//added as a user\n        \n        return true;\n    }\n    \n    function broker_stop_bet(uint256 bet_id) public payable returns(bool) //is_bet_stopped\n    {\n        bet_status_map[bet_id].is_bet_stopped=true;\n        return true;\n    }\n    \n    function better_increase_bet_tokens(uint256 bet_id,uint256 _increase_tokens_in_wei) public payable returns(bool)// is_increase_success\n    {\n        require(game_id_map_better[msg.sender][bet_id].betted_tokens>0);\n        require(bet_status_map[bet_id].is_bet_stopped==false);\n        require(bet_details_map[bet_creator[bet_id]][index_of_broker_bet[bet_id]].expiry_time>=now);\n        require(balanceOf(msg.sender)>=_increase_tokens_in_wei*1000);\n        transferFrom(msg.sender,this,_increase_tokens_in_wei*1000);\n        game_id_map_better[msg.sender][bet_id].betted_tokens+=_increase_tokens_in_wei;\n        \n        if(game_id_map_better[msg.sender][bet_id].option==false)\n            bet_tokens_for_low[bet_id]+=_increase_tokens_in_wei;\n        else if(game_id_map_better[msg.sender][bet_id].option==true)\n            bet_tokens_for_high[bet_id]+=_increase_tokens_in_wei;\n        \n        return true;\n    }\n    \n    function better_exit_bet(uint256 bet_id) public payable returns(bool)\n    {\n        require(game_id_map_better[msg.sender][bet_id].betted_tokens>0);\n        require(bet_status_map[bet_id].is_bet_stopped==false);\n        require(bet_details_map[bet_creator[bet_id]][index_of_broker_bet[bet_id]].expiry_time>=now);\n        is_exit[msg.sender][bet_id]=true;\n        uint256 tokens_betted=game_id_map_better[msg.sender][bet_id].betted_tokens;\n        game_id_map_better[msg.sender][bet_id].betted_tokens=0;\n        transferFrom(this, msg.sender, (tokens_betted*1000*95)/100);\n        transferFrom(this, bet_creator[bet_id], (tokens_betted*1000*5)/100);\n        \n        if(game_id_map_better[msg.sender][bet_id].option==false)\n        {\n            bet_tokens_for_low[bet_id]-=tokens_betted;\n            low_betters[bet_id]--;\n        }\n        else if(game_id_map_better[msg.sender][bet_id].option==true)\n        {\n            bet_tokens_for_high[bet_id]+=tokens_betted;\n            high_betters[bet_id]--;\n        }\n        return true;    \n    }\n    function broker_setting_result_and_distribute_money(uint256 bet_id,uint256 result_options) public payable returns(bool)\n    {\n        require(bet_creator[bet_id]==msg.sender);\n        require(bet_details_map[bet_creator[bet_id]][index_of_broker_bet[bet_id]].expiry_time<=now);\n        require(bet_status_map[bet_id].is_result_published==false);\n        require(result_options<=12 && result_options>=10);  //10 ==low  11==high  12==draw\n        \n        \n        bet_status_map[bet_id].is_result_published=true;\n        bet_status_map[bet_id].final_option=result_options;\n        //bool result_option;\n        \n        uint256 count = betters_of_bet_id[bet_id].length;\n        \n        if(result_options==12)\n        {\n            //draw\n            while(count>0)\n            {\n                if(game_id_map_better[betters_of_bet_id[bet_id][count-1]][bet_id].betted_tokens>0)\n                {\n                    transferFrom(this, betters_of_bet_id[bet_id][count-1], game_id_map_better[betters_of_bet_id[bet_id][count-1]][bet_id].betted_tokens*1000);\n                }\n                count--;\n            }\n            return true;\n        }\n        else if(result_options==11)\n        {\n            //high setted as result \n            \n            //uint256 low_high_ratio = ; \n            while(count>0)\n            {\n                if(game_id_map_better[betters_of_bet_id[bet_id][count-1]][bet_id].betted_tokens>0 && game_id_map_better[betters_of_bet_id[bet_id][count-1]][bet_id].option==true)\n                {\n                    //betted tokens:   game_id_map_better[betters_of_bet_id[bet_id][count-1]][bet_id].betted_tokens\n                    //low bet token:   bet_tokens_for_low[bet_id]\n                    //high bet tokens: bet_tokens_for_high[bet_id]\n                    //(game_id_map_better[betters_of_bet_id[bet_id][count-1]][bet_id].betted_tokens*bet_tokens_for_low[bet_id])\n                    //((game_id_map_better[betters_of_bet_id[bet_id][count-1]][bet_id].betted_tokens*bet_tokens_for_low[bet_id])/bet_tokens_for_high[bet_id])\n                    //(game_id_map_better[betters_of_bet_id[bet_id][count-1]][bet_id].betted_tokens+((game_id_map_better[betters_of_bet_id[bet_id][count-1]][bet_id].betted_tokens*bet_tokens_for_low[bet_id])/bet_tokens_for_high[bet_id]))\n                    //(1000*(game_id_map_better[betters_of_bet_id[bet_id][count-1]][bet_id].betted_tokens+((game_id_map_better[betters_of_bet_id[bet_id][count-1]][bet_id].betted_tokens*bet_tokens_for_low[bet_id])/bet_tokens_for_high[bet_id])))\n                    transferFrom(this, betters_of_bet_id[bet_id][count-1], (1000*(game_id_map_better[betters_of_bet_id[bet_id][count-1]][bet_id].betted_tokens+((game_id_map_better[betters_of_bet_id[bet_id][count-1]][bet_id].betted_tokens*bet_tokens_for_low[bet_id])/bet_tokens_for_high[bet_id]))));\n                    //game_id_map_better[betters_of_bet_id[bet_id][count-1]][bet_id].tokens_won=((game_id_map_better[betters_of_bet_id[bet_id][count-1]][bet_id].betted_tokens*bet_tokens_for_low[bet_id])/bet_tokens_for_high[bet_id]);\n                }\n                count--;\n            }\n            return true;\n        }\n        \n        else if(result_options==10)\n        {\n            //low setted as result \n            \n            while(count>0)\n            {\n                if(game_id_map_better[betters_of_bet_id[bet_id][count-1]][bet_id].betted_tokens>0 && game_id_map_better[betters_of_bet_id[bet_id][count-1]][bet_id].option==false)\n                {\n                    //betted tokens:   game_id_map_better[betters_of_bet_id[bet_id][count-1]][bet_id].betted_tokens\n                    //low bet token:   bet_tokens_for_low[bet_id]\n                    //high bet tokens: bet_tokens_for_high[bet_id]\n                    //(game_id_map_better[betters_of_bet_id[bet_id][count-1]][bet_id].betted_tokens*bet_tokens_for_high[bet_id])\n                    //((game_id_map_better[betters_of_bet_id[bet_id][count-1]][bet_id].betted_tokens*bet_tokens_for_high[bet_id])/bet_tokens_for_low[bet_id])\n                    //(game_id_map_better[betters_of_bet_id[bet_id][count-1]][bet_id].betted_tokens+((game_id_map_better[betters_of_bet_id[bet_id][count-1]][bet_id].betted_tokens*bet_tokens_for_high[bet_id])/bet_tokens_for_low[bet_id]))\n                    transferFrom(this, betters_of_bet_id[bet_id][count-1], (1000*(game_id_map_better[betters_of_bet_id[bet_id][count-1]][bet_id].betted_tokens+((game_id_map_better[betters_of_bet_id[bet_id][count-1]][bet_id].betted_tokens*bet_tokens_for_high[bet_id])/bet_tokens_for_low[bet_id])))); \n                    //game_id_map_better[betters_of_bet_id[bet_id][count-1]][bet_id].tokens_won=((game_id_map_better[betters_of_bet_id[bet_id][count-1]][bet_id].betted_tokens*bet_tokens_for_high[bet_id])/bet_tokens_for_low[bet_id]);\n                }\n                count--;\n            }\n            return true;\n        }\n        return true;\n    }\n}",
  "sourcePath": "/home/karan/Ethereum_Proj/High-Low-V2-master/contracts/High_low_2.sol",
  "compiler": {
    "name": "solc",
    "version": "0.4.19+commit.c4cbbb05.Emscripten.clang"
  },
  "schemaVersion": "2.0.0",
  "updatedAt": "2018-04-27T11:13:48.111Z"
}